:020000040800F2
:10000000000400209101000873E500089301000836
:100010009301000893010008930100089301000870
:100020009301000893010008930100089301000860
:100030009301000893010008930100089301000850
:100040009301000893010008930100089301000840
:100050009301000893010008930100089301000830
:100060009301000893010008930100089301000820
:10007000930100089301000893010008B9F60008F5
:100080009301000893010008930100089301000800
:1000900093010008930100089301000893010008F0
:1000A000930100089301000893010008C9F30008B8
:1000B000E1F30008EBF3000893010008C9F8000819
:1000C00072B6244880F30888234880F30988022008
:1000D00080F31488BFF36F8F0DF03AFF0DF0FEFC34
:1000E0001E481F491B4A914202DA08600431FAE7B0
:1000F0001C49194A914202DA08600431FAE71A49A8
:100100001A4A1B4B9A4204DA086810600431043220
:10011000F8E700201749184A914202DA08600431D2
:10012000FAE70DF019FF0DF014FF144C144DAC421A
:1001300003DA216888470434F9E706F073F9114CB3
:10014000114DAC4203DA216888470434F9E70F49BE
:100150000847000000040020000C002055555555AC
:100160000000002000040020B01B0108000C00204B
:10017000980F0020980F002018380020C0000008B9
:10018000C0000008C0000008C000000855DF0008DB
:1001900096E700F000F8FEE7F0B544464D465646B7
:1001A0005F46F0B46B46CB60C3689D46F0BCA0468A
:1001B000A946B246BB46F0BD62B6281CA047002047
:1001C0000EF054F9FEE70EF0B7F8024A024B136046
:1001D000FEE7C04604ED00E00000008002B4714676
:1001E00049084900095649008E4402BC7047C04680
:1001F00002B4714649084900095C49008E4402BCBA
:100200007047C04603B47146490840004900095A86
:1002100049008E4403BC7047002934D001230022DA
:1002200010B488422CD301242407A14204D2814275
:1002300002D209011B01F8E7E400A14204D2814285
:1002400002D249005B00F8E7884201D3401A1A4302
:100250004C08A04202D3001B5C0822438C08A04239
:1002600002D3001B9C082243CC08A04202D3001BEF
:10027000DC082243002803D01B0901D00909E3E769
:10028000100010BC704701B5002000F05FF802BDFF
:100290000029F8D003B5FFF7C1FF0EBC4243891A0D
:1002A0001847C046002941D010B404004C40A44671
:1002B00001230022002900D54942002800D54042F0
:1002C00088422CD301242407A14204D2814202D2C5
:1002D00009011B01F8E7E400A14204D2814202D2E5
:1002E00049005B00F8E7884201D3401A1A434C08E2
:1002F000A04202D3001B5C0822438C08A04202D318
:10030000001B9C082243CC08A04202D3001BDC083F
:100310002243002803D01B0901D00909E3E710009C
:100320006446002C00D5404210BC704701B5002047
:1003300000F00CF802BDC0460029F7D003B5FFF766
:10034000B3FF0EBC4243891A1847C0467047C046E7
:100350009140030090409C46203A934019435242FA
:100360006346D34019437047002B11D1002A0FD1A7
:10037000002900D1002802D00021C943080007B499
:10038000024802A14018029003BDC046C1FFFFFF12
:1003900003B4684601B502980FF005FE019B9E4626
:1003A00002B00CBC7047C046D0400B00D1409C4608
:1003B000203AD34018435242634693401843704753
:1003C00010B5002903D100F007F8203002E0080042
:1003D00000F002F810BDC0461C2101231B04984206
:1003E00001D3000C10391B0A984201D3000A0839C6
:1003F0001B09984201D30009043902A2105C40187D
:100400007047C04604030202010101010000000020
:1004100000000000062010B500F0D8F901200FF010
:100420008DFDC046114B70B51C680500236B002B79
:1004300003D000221D615A6170BD182000F0ECFA53
:10044000031E20630CD00A4A00210260094A426060
:10045000094A82600B228281012018615961E8E714
:1004600000224621054B064800F0B0FA000C00209F
:100470000E33CDAB34126DE6ECDE0500D81A010860
:10048000F01A0108184B70B51D682C6B002C0ED0AB
:1004900020696169154A164B0FF063FD01220023A4
:1004A00012184B41580040082261636170BD18204A
:1004B00000F0B2FA041E28630FD00E4B0122036035
:1004C0000D4B43600D4B83600B238381002302613E
:1004D000436107480A4A064BE6E700225221094BCE
:1004E000094800F073FAC046000C00202D7F954C9F
:1004F0002DF451580E33CDAB34126DE6ECDE050011
:100500002E7F954CD81A0108F01A010830B5032A3D
:1005100019D903000B43551E9B0710D0002303E09D
:100520005A1C9D4212D01300C25CCC5CA242F7D090
:10053000101B0CE0043A04300431032A03D9046888
:100540000B689C42F6D0551E002AE7D1002030BD32
:10055000F0B588420AD98B18984207D2531E002A58
:1005600003D0CA5CC254013BFBD2F0BD05000F2A88
:100570000AD8561E002AF8D00023CC5C1A00EC548E
:1005800001339642F9D1F0E70324030026000B4320
:100590001E401C4230D11500103D2D0903000C00F7
:1005A000AC462F013F1825681D6065685D60A56831
:1005B0009D60E5681034DD601D001033BD42F2D14E
:1005C00065460F230C2401352D01491913404519A7
:1005D000144213D08C59AC5104369C1B032CF9D80F
:1005E000043B9B0801339B00ED18C91803231A40F4
:1005F000561E002AC0D1B8E7561EBDE71A00B8E75C
:10060000F0B50500830749D0541E002A45D00300E9
:100610000326CAB202E00135013C3ED301332A7001
:100620003342F8D1032C30D9FF220A401502AD180D
:100630002A04AD180F2C34D92700103F3F093E0182
:10064000B4461E001A001036664415605560956069
:10065000D56010329642F8D101373F01DB190F27E0
:100660000C22274022403C00002A0ED03E1FB60834
:10067000B400A4461A001C1D644420C2A242FCD14E
:1006800003240136B6009B193C40002C05D0C9B2AA
:100690001C19197001339C42FBD1F0BD03001400FA
:1006A000C0E72700E2E7C046C36B10B50400002B8B
:1006B00001D0002010BD802100F0E6F9E0630028A1
:1006C00006D002000023803208C09042FCD1F0E73F
:1006D00001204042EEE7C04670B505000C00160050
:1006E0001F2907D8C06B002809D0A400041920686E
:1006F000266070BD1623036001204042F9E7802187
:10070000280000F0C1F9010003000022E8638031F5
:100710000028F1D004C38B42FCD1E6E770B5050098
:100720000C001F291ED8C36B002B0ED08A009B180B
:100730001A68002A09D0012A05D0511C0ED00021C8
:10074000200019609047002070BD280000F0F2F8EA
:1007500022000100280000F0D9F8F5E71623036015
:100760000120F1E71623036001204042ECE7C04678
:1007700070B505000C001F2924D8C36B002B14D0C2
:10078000A2009B181A68002A09D0511C0BD0012A1C
:1007900007D00021200019609047002070BD012083
:1007A000FCE70320FAE70220F8E7802100F06CF96B
:1007B000031EE86306D000210200803002C290428E
:1007C000FCD1DDE701204042E8E7C046144B70B59C
:1007D00004001D681F281DD8EB6B002B0DD0820074
:1007E0009B181A68002A08D0012A04D0511C0DD089
:1007F000002119609047002070BD280000F09AF891
:1008000022000100280000F081F8F5E716230120FE
:100810002B60F1E7162301202B604042ECE7C04635
:10082000000C0020114B70B504000E001D681F283D
:1008300007D8E86B002809D0A400041920682660B6
:1008400070BD16232B6001204042F9E7802128006B
:1008500000F01AF9010003000022E863803100284B
:10086000F1D004C38B42FCD1E6E7C046000C002067
:100870000C4B10B51C68E36B002B01D0002010BDA1
:100880008021200000F000F9E063002806D002007B
:100890000023803208C09042FCD1EFE701204042A3
:1008A000EDE7C046000C0020174B70B504001D6832
:1008B0001F2825D8EB6B002B14D0A2009B181A68B8
:1008C000002A09D0511C0BD0012A07D0002120009A
:1008D00019609047002070BD0120FCE70320FAE773
:1008E0000220F8E78021280000F0CEF8031EE8631C
:1008F00006D000210200803002C29042FCD1DCE729
:1009000001204042E7E7C046000C0020002370B5FC
:10091000074D0400080011002B600FF017FB431C6B
:1009200000D070BD2B68002BFBD02360F9E7C046D8
:10093000A00F002010B50FF011FB10BDF0B50500A1
:100940000F2A33D90324030026000B431E401C4208
:1009500037D11500103D2D0903000C00AC462F01C6
:100960003F1865685D60A5689D60E568DD60256885
:1009700010341D601D001033BD42F2D165460F23B7
:100980000C2401352D0149191340451914421AD080
:100990008C59AC5104369C1B032CF9D8043B9B08A2
:1009A00001339B00ED18C91803231A40561E002A74
:1009B00006D00023CC5C1A00EC5401339642F9D1E6
:1009C000F0BD561EF5E71A00F0E7C04670B51400FA
:1009D0001A000A4B06001B6884B0D868002C0AD0A5
:1009E000074B084D0193009133002900029400F059
:1009F000EFF8FFF70FFD044B1C00F2E7000C00209E
:100A00002C1B01083C1B0108381B0108130010B502
:100A10000022FFF7DBFFC04610B5034B010018684A
:100A200000F032F810BDC046000C002010B5034B9A
:100A30000100186800F0F2F810BDC046000C00205C
:100A400070B5104E050033680C00002B15D0210046
:100A500028000FF057FA431C0CD00323C41C9C43FE
:100A6000A04205D0211A28000FF04CFA013001D025
:100A7000200070BD01246442FAE700210FF042FA21
:100A80003060E4E7980F0020F8B50323CE464746D0
:100A9000CD1C9D430835060080B50C2D1ED20C25BB
:100AA000A9421DD8300000F077F83A4F7A68002A42
:100AB0001AD0140004E063682200002B14D01C003C
:100AC00023685B1BF7D40B2B27D961192560A24241
:100AD0005BD051600B6063684B600DE0002DDFDA86
:100AE0000C230020336014E029003000FFF7A8FF3A
:100AF0000400431C19D00560300000F055F82000B8
:100B000007220B30231D9043C21A984201D01B1AB2
:100B1000A350C0BCB946B046F8BD6368A24202D03B
:100B20005360E9E743467B60E6E77B689846002B25
:100B300024D0444663689846002BFAD123680021EC
:100B400099463000A1440FF0DDF9814516D12368A4
:100B50003000ED1A2900FFF773FF01300ED0236833
:100B60007A685B1923605368002B02D1DAE71A0018
:100B70005B68A342FBD100235360BDE70C23300028
:100B8000336000F011F80020C3E779600B60636800
:100B90004B60B1E7980F002010B5024800F034F820
:100BA00010BDC046B40F002010B5024800F034F864
:100BB00010BDC046B40F00200CB400B583B004AB28
:100BC00004CB019300F0C0F803B008BC02B0184792
:100BD0000EB400B582B003AB0100054804CB006839
:100BE000019300F0B1F802B008BC03B01847C0464A
:100BF000000C00207047C0467047C0467047C04692
:100C00007047C0467047C0467047C04601207047D5
:100C1000012070477047C0467047C04670B5050058
:100C2000002915D00C1F2368002B23DB2800FFF7B9
:100C3000B3FF274A1368002B05D0A3420BD92168C4
:100C4000601883422CD0280063601460FFF7ACFF6B
:100C500070BDA34210D81A005B68002BF9D1106850
:100C600011188C4218D02CD3636054602800FFF711
:100C70009BFFEDE7E418D9E711685018A04214D0A3
:100C80001FD8216860188342EED118685B6841184C
:100C9000216063605460E9E723681B181360E5E78F
:100CA00018685B6841182160CDE720680918501862
:100CB00011608342DAD118685B6841181160536093
:100CC000D4E70C2328002B60FFF76EFFC0E7C04677
:100CD0009C0F0020936810B5013B9360002B04DA51
:100CE0009469A34207DB0A2905D01368581C1060D9
:100CF0000800197010BD00F0FDFEFBE7F8B5060016
:100D00000F00002B0DD01400D51802E00134AC42C6
:100D100007D03A0030002178FFF7DCFF431CF5D103
:100D2000F8BD0020FCE7C04610B51400926800230F
:100D3000002A05D0220000F0DFFC00220300A260A0
:100D400000221800626010BDF0B54E464546DE46F2
:100D50005746E0B58146884614001E009FB0002823
:100D600003D0036A002B00D14EE143460C229B5E68
:100D70004246526ED20702D49A0500D43CE11B07CA
:100D800000D493E043461B69002B00D18EE0002382
:100D900006AD6B6120336B761033AB765346A346BA
:100DA0009B4F059603935B461B78002B00D1ABE06D
:100DB0005C4604E063780134002B00D18CE0252BE5
:100DC000F8D15B46E31A9A465C4500D089E0237867
:100DD000002B00D198E0012300225B42069207938A
:100DE000002200230892099300234332AB54AB65E1
:100DF00001339B46013406E05A46C01B82401C006A
:100E000029680A432A6005223800217800F030FF63
:100E1000631C1E000028EFD12A68D10602D54321A9
:100E200020306854110702D543212B2068542178C3
:100E30002A2900D07BE0059B191D1B680591002B1A
:100E400000DAADE0EB6061782E2900D187E0714CCB
:100E50000322200000F00CFF002806D04023001BD6
:100E600083402A68013613432B603178731C0622B5
:100E700069489B46297600F0FBFE002800D195E0EA
:100E8000664B002B00D17BE005AA00922900424668
:100E90004846634B00E000BF0390039B013333D00F
:100EA000039A6B69944663446B617CE7414648460C
:100EB00000F07AFE002800D169E743465B6EDB074D
:100EC00007D443469B899B0503D44346986DFFF79F
:100ED000A3FE0120404223E05B46E31A9A465C45AC
:100EE00012D03B0000264746A0464C46994602E0F9
:100EF0000136B2454BD95B463A002000995DFFF7B9
:100F0000E9FE0130F4D1B84643465B6EDB0700D5FD
:100F10006FE043469B899A0567D55B06D9D468691B
:100F20001FB0F0BCBB46B246A946A046F0BD0800C3
:100F300030382600092800D986E7EA68140000E066
:100F40000133A20012191978520014180800303821
:100F50000928F5D91E00EC602E2900D077E77178BA
:100F60002A292DD1059BB01C1A1D1B6805926B60A8
:100F7000002B02DA01235B426B60B178060066E762
:100F80000722059B073393430833059388E74B46B5
:100F90006A69A146524444466A61B8461F0016E792
:100FA0005B42EB6002231A432A604CE705AA0092D9
:100FB0002900424648461A4B00F0E4F803906CE7DB
:100FC00008000023303801366B60092800D93EE75D
:100FD0001A0093009B1871785B001A1808003038CB
:100FE00001360928F5D96A6031E74346986DFFF765
:100FF00013FE43469B8990E74346986DFFF704FE36
:1010000043460C229B5EBAE600F02AFBADE6C046E2
:101010006C1B0108741B0108781B0108000000000C
:10102000FD0C000810B504001300034A10680A0004
:101030002100FFF789FE10BD000C0020F8B55746CF
:101040004E464546DE46E0B51F000A9B924698464E
:101050000A698B6806000C009A4200DA1A005346AF
:101060001A604323E35C002B02D0514601320A6030
:101070002268910661D55346524606201B6802330A
:10108000136022681100104208D119208346002005
:10109000E1688146A344994247DC11004323E35CA5
:1010A0005A1E934189060AD53020E1184331087051
:1010B00045215A1C615CA218433202331170220090
:1010C000390030004332C04701301DD05346062559
:1010D0001B68E1689C462368A26820692B40042BAA
:1010E00031D0824239DD00239946121A91440025FD
:1010F0001A3402E001354D452FDA01232200390070
:101100003000C0470130F5D101204042F0BCBB4661
:10111000B246A946A046F8BD01239C465346E56861
:101120001B68E144ED1A4D4524DD01235A46390080
:101130003000C0470130EFD1E6E7062111420ED062
:101140005A1E9341BBE76346C91ACB43DB170B40DA
:1011500099468242C9DC0029C9DC0020D6E7192063
:101160005346834600201B68E1688146A3449942A8
:10117000DBDC92E743232168E35C5A1E9341890636
:1011800092D49CE7F0B54E46994643239C46574679
:101190004546DE468C446346E0B587B002930C00BA
:1011A000097E90460700109A002914D00B00583B86
:1011B000DBB2202B48D88B489B00C3589F4613684E
:1011C00021681D1D606915601B680E0602D4490662
:1011D00000D5E3E018600023029D23614B46210007
:1011E00000933800434605AAFFF728FF01301ED0C0
:1011F0002A00414638002369C847013017D02368C8
:10120000E068059E9B071BD5B04219DD19239A465D
:101210000025A24404E0E0680135831BAB420FDDEA
:101220000123524641463800C8470130F3D101201E
:10123000404207B0F0BCBB46B246A946A046F0BD4E
:10124000B042F6DA3000F4E72500422301204235AF
:10125000E154432300222061E254BFE71368216870
:10126000181D10600D0602D44D0600D59AE01A68CC
:1012700016006368002A00DA98E05B4A93460A2267
:1012800003924CE0136820681D1D1560060602D409
:10129000400600D584E01E68534B9B466F2900D161
:1012A00095E00A23039336E013682500191D1160A9
:1012B0001A68422301204235E254CAE71368191D17
:1012C00011601D6800212800626800F0D1FC002830
:1012D00000D185E0401B6060BBE7202321680B4301
:1012E000236045217820605440498B461168081DD1
:1012F00010601D0631D45D062FD50E88DA0702D5A1
:10130000202213432360002E03D12022236893431D
:1013100023601023039343230022E2546368A360F5
:10132000002B1EDB042122688A432260002E18D184
:10133000029D002B4ED1039B082B24D0029B5B1BEC
:1013400023614BE745235821E154274923688B4605
:101350001168081D10601D06CDD50E68CEE7236804
:10136000BFE7039B9A46029D30005146FEF790FF6F
:101370005B465B5C013D2B70330006005345F3D2A6
:10138000039B082BDAD12368DB07D7D56268236972
:101390009A42D3DC3023013D2B70CFE718801AE747
:1013A0001E8879E700269E5F320062E743222D20E7
:1013B000A054A360002B02DB0423994321600A237D
:1013C0009A46094B76429B460A230393CBE70823B0
:1013D0000393A0E75B4625001B7842352B70AAE7F4
:1013E000606836E78C010108801B0108941B010826
:1013F00010B5034A0349044800F006FB10BDC0467F
:10140000500C0020811E0008040C002041680B4B8A
:1014100010B50400994201D000F032FDA168084BDC
:10142000994202D0200000F02BFDE168054B994263
:1014300002D0200000F024FD10BDC046C80F0020DF
:1014400030100020981000204B6E10B5DB0702D43E
:101450008B899B0501D5002010BD886DFFF7D4FB5B
:10146000F9E7C0464B6E10B5DB0702D48B899B05AC
:1014700001D5002010BD886DFFF7CEFBF9E7C0460F
:10148000F8B5CE4647463B4C3B4B3C4A2000002536
:1014900080B51A600423082200215C302560656055
:1014A000A560656625616561A561E360FFF7A8F841
:1014B0002000334B334F344E99466362334B5830E0
:1014C0009846E7622663A3622462FFF795FBCC236C
:1014D000E5502F4B20006367802300210822C43091
:1014E000E550A566E5662567A567E567FFF788F817
:1014F000220088236832E2504A460433E2504246D2
:1015000020000433E2500433E750C0300433E65087
:10151000FFF772FBD0232000E5500433E55004337D
:10152000E5501C4A5C33E550583BE2500433E5502B
:101530002D300433E550002104330822FF30E550FC
:10154000FFF75EF82200F023D032E2504A4604331F
:10155000E250200042460433E25029300433E75081
:10156000FF300433E650FFF747FBC0BCB946B04636
:10157000F8BDC046C80F0020C40F0020F1130008BA
:101580004D1A0008B91A0008E91A0008791A00086B
:101590000900010012000200F0B5C6462C4B0700FE
:1015A00000B518009846FFF72FFB2A4B1B68002B4D
:1015B00044D0294E7368B468013B03D524E06834F5
:1015C000013B21D30C22A55E002DF8D12000234B36
:1015D0005830E3606566FFF70FFB4046FFF71CFBE2
:1015E0002000082200212560A560656025616561F5
:1015F000A5615C30FFF704F86563A563A564E56445
:10160000200080BCB846F0BD3568002D01D02E000A
:10161000D0E7D62138004900FFF736FA041E10D073
:101620000423D0220560250043600C300021A06017
:101630005200FEF7E5FF34602E00BBE7FFF720FF06
:10164000B7E730604046FFF7E7FA0C233B60D7E787
:10165000C00F0020C40F0020500C00200100FFFF2D
:1016600070B50400094D2800FFF7CEFA236A002B5D
:1016700005D1074B2362074B1B68002B03D02800C2
:10168000FFF7CAFA70BDFFF7FBFEF8E7C00F0020B6
:101690000D140008C40F002010B50248FFF7B4FA7B
:1016A00010BDC046C00F002010B50248FFF7B4FAC5
:1016B00010BDC046C00F002010B50448FFF7A4FAC3
:1016C0000020034A034900F09FF910BDC00F00201D
:1016D000500C00204914000810B5044A04490020A9
:1016E00000F092F90348FFF797FA10BD500C002064
:1016F00065140008C00F0020F0B54E46DE46574680
:101700004546E0B5936883B00C0091460090002BED
:101710005FD00C23CA5E130763D50B69002B60D022
:101720004B461F68930723D5A36A00269A46B34BFE
:1017300000259846216A002D16D02B00454500D97A
:10174000AE4B32000098D047002859DD4B464A4640
:101750009B6836181B1A2D1A9360002B39D0A36A88
:10176000216A9A46002DE8D13E687D680837E2E795
:10177000D30762D50023B84600209A4600261F00F2
:10178000002E45D000284CD03B00B3469E4200D9E5
:101790009B4620682269A5686369904203D9ED18C9
:1017A000AB4500DDFEE05B4500DDEEE0A56A52469C
:1017B000216A0098A847051E22DD01207F1B19D051
:1017C0004B464A469B68AA445B1B761B9360002BE2
:1017D000D6D1002003B0F0BCBB46B246A946A04615
:1017E000F0BD2100009800F0DFF900280DD10C2396
:1017F000E25E95E72100009800F042FB0028DFD070
:101800000C22A35E40221343A38101204042E1E762
:101810000822434694465E68E044002EF8D01B68D8
:101820009A4632000A21504600F022FA002800D1E0
:10183000DBE053460130C71AA6E7002380219A4611
:1018400089008B46564655462068A36884469846CC
:10185000002D5CD059460A425DD09A46AB4200D971
:1018600090E09023DB001A4232D02169431A60696C
:10187000019343001B18D80FC3185810019B8246D0
:1018800001335B19834201D99A461800520500D4EE
:1018900097E001000098FFF7F7F88046031E00D19B
:1018A000A6E0019A2169FFF749F8A389544A134039
:1018B00080221343A38143462361019B1A004244C3
:1018C000944622605246A846AA46D31A6261A36093
:1018D000524631006046FEF73BFE4246A8460025D0
:1018E000A36820689B1A5044A36020604B46424680
:1018F0009B6846449B1A4A46936000D169E70C23D3
:10190000E25E2068A36884469846002DA2D13E6816
:101910007D6808379AE7226982421BD36269904644
:10192000AA4217D8802328001B069D4200D33548C1
:101930004146FEF7B7FC4346A26A43439046216AFC
:1019400032000098C047002800DC59E78046434633
:10195000ED1ACBE79846AB4200D9A8464246310083
:10196000FEF7F6FD4246A36820689B1A4044A36038
:101970002060002BEBD12100009800F081FA0028B4
:10198000E5D03DE7A846AA46A2E75A465146FEF7EB
:10199000DFFD5A46A3685D469B1AA36023685B443B
:1019A00023600AE751462A00FEF7D2FD2368210092
:1019B0005B190098236000F063FA002800D1FCE670
:1019C0001EE70200009800F08DF98046002800D044
:1019D00071E7009D21692800FFF720F98022A38983
:1019E0009343743A1BB22A600CE7731C1F00CCE6C9
:1019F000009A0C3313600C22A35E03E700FCFF7F08
:101A00007FFBFFFFFFFFFF7FF8B54746CE468846C6
:101A100080B58146170000267D68BC68013D0DD465
:101A2000A389012B07D90E22A35E013303D0210025
:101A30004846C04706436834013DF1D23F68002F55
:101A4000EAD13000C0BCB946B046F8BD70B50C0054
:101A50000E25495F0EF04BFA002803DB636D1B185F
:101A6000636570BDA389024A1340A381F9E7C046AC
:101A7000FFEFFFFF00207047F8B50C001F000C239C
:101A8000C95E05001600CB050AD40A4B3200194086
:101A90002800A1810E23E15E3B000EF02FFAF8BD75
:101AA0000E23E15E002202230EF026FA0C23E15EF3
:101AB000EBE7C046FFEFFFFF70B50C000E25495F56
:101AC0000EF01AFA431C07D08023A2895B0113434E
:101AD0001BB26065A38170BDA389024A13401BB28B
:101AE000F8E7C046FFEFFFFF10B50E23C95E0EF00A
:101AF00007FA10BDF8B505000E001400002802D04A
:101B0000036A002B41D0A369A360A3891B071BD5DF
:101B10002369002B18D0FF22F7B2616916402268B2
:101B2000D31A99421FDD0133A1680139A160511C0C
:101B30002160177062699A421ED0A389DB0701D524
:101B40000A2E19D03000F8BD2100280000F02CF832
:101B5000002817D1FF222369F7B261691640226875
:101B6000D31A9942DFDC2100280000F089F900280F
:101B700008D101232268D7E72100280000F080F96E
:101B80000028DFD001267642DCE7FFF769FDBAE7DF
:101B9000030010B50A00034908681900FFF7AAFFFF
:101BA00010BDC046000C0020304B70B50500186811
:101BB0000C00002802D0026A002A4FD00C22A35E3B
:101BC0001A071DD52269002A24D0D90708D500217B
:101BD000A160616900204942A161002A08D070BD5E
:101BE0000021980700D461690020A160002AF6D185
:101BF0001A06F4D5402213430120A3814042EEE7A8
:101C0000DA062ED55A0714D4226908210B43A38182
:101C1000002ADAD1A0218020890080001940814269
:101C2000D3D02100280000F071F90C22A35E2269B4
:101C3000CBE7616B00290AD022004432914204D0E4
:101C40002800FEF7EBFF0C22A35E00226263242231
:101C500093430022626022692260D6E7FFF700FD0D
:101C6000ACE709222A6037321343C5E7000C002095
:101C700070B5CCB283070FD0531E002A0AD00325BB
:101C800004E00130284208D0013B03D30278A2428D
:101C9000F7D170BD0020FCE71300032B12D9FF22FF
:101CA0000A401502AD182A040C4EAD1803E0043B9F
:101CB0000430032B06D9026809496A405118914340
:101CC0003142F4D0C218002B03D1E3E70130904237
:101CD000E0D00378A342F9D1DBE7C0468080808062
:101CE000FFFEFEFEF0B5C64607000E00140000B56C
:101CF00000292DD0002A1DD000F090F980468442A2
:101D000003D835004308A34210D321003800FEF762
:101D1000BBFE051E10D0220044450FD8310028001C
:101D2000FEF70CFE31003800FEF778FF280080BC7B
:101D3000B846F0BDFEF772FF0025F7E731004246D6
:101D40002800FEF7FBFD31003800FEF767FFEDE7E6
:101D50001100FEF799FE0500E8E7C046F0B5C6465B
:101D600000B50C228B5E07000C001A073CD44A68B1
:101D7000002A5CDDE66A002E32D000223D68216A2E
:101D80003A60DA0457D4002201233800B047020039
:101D9000431C67D00C21635EE66A216A5B0706D5A7
:101DA0006368D21A636B002B01D0236CD21A002314
:101DB0003800B047431C47D0002363602369236089
:101DC000A389DB043ED4616B3D60002908D0230069
:101DD0004433994202D03800FEF720FF00236363AA
:101DE000002080BCB846F0BD0E69002EF8D00D680A
:101DF0000022AD1B0E609B0700D14A69A260002D36
:101E000004DCEDE736182D1A002DE9DDA36A320057
:101E1000984638002B00216AC0470028F2DC402297
:101E2000A38913431BB20120A3814042D9E70A6C66
:101E3000002A9FDCD4E7626DB0E76260226922600D
:101E4000DB04C0D56065BEE73A680C21635E002AFA
:101E5000F3D01D2A01D0162A0ED100236360236916
:101E60002360B0E73B68002B00D193E71D2B01D026
:101E7000162BD4D13D60B3E740221343D3E7C046CD
:101E80000B6970B505000C00002B1AD0002802D099
:101E9000036A002B17D00C22A35E002B11D0626EB8
:101EA000D20701D49B0511D528002100FFF756FF6A
:101EB000636E0500DB0702D4A3899B050AD52800C1
:101EC00070BD0025FBE7FFF7CBFBE4E7A06DFEF755
:101ED0009BFEE9E7A06DFEF79FFEF0E7010010B55D
:101EE000002804D0054B1868FFF7CAFF10BD044A4C
:101EF00004490548FFF788FDF8E7C046000C0020BC
:101F0000500C0020811E0008040C0020F0B50C23AA
:101F1000CD5E06000C0097B0AA0707D52300473313
:101F2000236023610123636117B0F0BD0E23C95EF6
:101F300000292BDB6A460DF0F2FF002824DB802706
:101F4000FF0039003000019DFEF79EFD002833D0D0
:101F50008022A38920601343A381F0231B021D402C
:101F60008023206167619B019D42DDD130000E23FB
:101F7000E15E0DF0E0FF0028D6D00322A389934351
:101F800001221343A381CFE70C23E55E0F4B2D06FF
:101F9000ED171D408023DB009C466544290030007E
:101FA000FEF772FD002807D08022A389206013432A
:101FB000A38120616561B7E70C22A35E9A05B3D4C3
:101FC0000322934302221343A381A7E740FCFFFFB0
:101FD00070B50C001E000E23C95E150096B00029D6
:101FE00014DB6A460DF09BFF00280FDBF0230199FC
:101FF0001B021940084B9C4661444B4259418023C7
:10200000DB00002031602B6016B070BDA389002179
:102010001B06F4D54023F4E700E0FFFF0B1F1B680D
:10202000181F002B00DB70470B58C018FBE7C04699
:102030000949421C0B7853439BB21B0A0B7007499A
:102040000B7853439BB21B0A0B70054B1878504317
:1020500080B2000A18707047853300208633002054
:102060008433002030B50324034D60432C002D1829
:102070006970AB70225430BD3811002010B50C21AE
:10208000014801F047FB10BD3811002010B5094A86
:102090001378002809D0042B06D801330648DBB298
:1020A0001370837003F013FD10BD002BFCD0013BB7
:1020B000F4E7C046600C00200C34002010B50B4A39
:1020C0001378042B01D9022313701378002809D048
:1020D000002B01D0013B137005481378C37003F047
:1020E000F6FC10BD032BF7D80133F4E75F0C00209A
:1020F0000C34002010B5184B184A1C781178184B76
:10210000002C09D000291AD00021117019708842C2
:1021100017D11978013916E000280BD0002910D00A
:1021200014701C700F4812781B780271437103F011
:10213000CEFC10BD0029ECD0072110700AE0002869
:10214000E7D019780131C9B219700729EAD90121FC
:10215000117000211970E5E7631100205E0C00206A
:10216000621100200C34002010B5094B1A780028A9
:102170000AD000221A700021064A07481B78117005
:10218000437003F0A4FC10BD002AF4D0013AF1E73B
:1021900063110020611100200C340020F8B50024E8
:1021A00085088E08970820003B0032002900013482
:1021B000FFF758FF062CF6D1F8BDF8B506248508C0
:1021C0008E08970820003B00320029000134FFF7F9
:1021D00049FF0C2CF6D1F8BD1E4BF7B51A781E4CF2
:1021E000002A2ED000221A700BF018F81B4B186032
:1021F000012323701A4B1B4EDB79184DA23B5A4228
:102200005341194ADB01137033708023174F28683C
:1022100001923B700BF046F8FA214900FDF7FCFFF4
:10222000C00712D4019B3A7831781878FFF7C5FFC0
:1022300028680BF037F80E4B984205D9002323701D
:1022400002E02378002BD5D1F7BD00221100100049
:10225000ECE7C0462012002030110020341100208D
:102260007B0C00208633002085330020843300203F
:10227000B70B00001F4BF7B51A781F4D002A31D05D
:1022800000221A700AF0CAFF1C4B186001232B7041
:102290001B4B80229B79002B01D00022802300243D
:1022A0001849164E0A70184F184A3068009101926A
:1022B00013703C700AF0F6FFFA214900FDF7ACFFFD
:1022C000C00713D4019B3A781978009B1878FFF760
:1022D00074FF30680AF0E6FF0D4B984205D90023E1
:1022E0002B7002E02B78002BD2D1F7BD2200210009
:1022F0002000ECE71F120020281100202C110020E4
:102300000C340020853300208433002086330020E5
:10231000B70B0000094B10B51A780224042A09D122
:102320000AF0AEFD044204D0002211001000FFF7B5
:1023300035FF10BD5B792342FBD0F5E77B0C002015
:1023400070B52F4D2A78002A29D02E4B1B78002BF0
:102350003FD180212C4A13702C4A11702C4A1370E3
:10236000284BFA26DB78012B48D12A4C20680AF04A
:1023700099FF7308984206D90023234A1370234A11
:102380001370234A137020680AF08CFFB04217D3F1
:102390002B78013B2B700AF041FF206010E0962162
:1023A0001D4B49001B888B4220D2164B1B78002BFB
:1023B0000FD1154AAC391370144A1170144A1370B6
:1023C000134B1A78114B19780F4B1878FFF7E6FE6C
:1023D00010E0042B0FD0002380210B4803700B4822
:1023E00003700B4B1970002AEAD0B9E70AF016FF08
:1023F000084B186070BD80230021EEE77600B4E73B
:102400000C1200207B0C0020853300208633002036
:1024100084330020241100200E12002070B5050026
:102420000F2855D9002332285ED950221C00824241
:102430005C416442E4B221001D20AF3205F0B0FBE4
:10244000FF260023320021001C2005F0A9FB142DDB
:102450003DD90023320021001B2005F0A1FB1E2DD9
:1024600035D90023320021001A2005F099FB282DD0
:102470002DD9002332002100192005F091FB322DC7
:1024800025D9002332002100182005F089FB3C2DBE
:102490001DD9002332002100172005F081FB462DB5
:1024A00015D9002332002100162005F079FB502DAC
:1024B0000DD9002332002100152005F071FB5A2DA3
:1024C00005D9002332002100142005F069FB70BDFE
:1024D0000028FCD00023FF211A001D2005F060FB1E
:1024E0000A2DF4D9002605E04022FF211D2005F029
:1024F00057FB4026FF24A4E710B5024B9879FFF75D
:102500008DFF10BD7B0C0020F7B50F280DD91428C6
:1025100022D9282824D93C2826D9502828D95F2810
:102520002AD840258023052402E0002580232C00A2
:1025300000270B269B080193AD080023F01B2A00FF
:1025400001990137FFF78EFDFBB29C42F5D20134B1
:10255000361B062C13D1F7BD402580230124E7E765
:10256000402580230224E3E7402580230324DFE77E
:10257000402580230424DBE780250023D3E70023C4
:1025800030001A0019000134FFF76CFDE4B2013E7F
:10259000DFE70000F8B54E4B4E4E1A784E4C4F4DCB
:1025A0004F4F002A1FD000221A700AF037FE4D4B01
:1025B000186023793370A3792B700AF02FFE494BF2
:1025C000386018680AF06EFE474B984204D9002222
:1025D000464B1A70464B1A7032780123032A5CD19D
:1025E000434A13701BE0227933789A42E5D0386869
:1025F0000AF058FEFA239B00984210D90123327842
:102600001A420AD122791A4207D0384A1370384A3E
:1026100013700AF003FE334B186023793370A279EC
:102620002B78344E9A423DD030680AF03BFEFA23B4
:102630009B00984201D9A3792B702F4B1B78002B5C
:1026400003D12A4B1B78002B26D0294B1B78002B5B
:1026500039D02A4C20680AF025FE294F0A2808D9CB
:102660000AF0DCFD3B7820605A1ED1B2120627D456
:1026700039708023234C244D2370403B2B70002362
:10268000224E3A783370224B985CFFF7D1FC3278B7
:1026900029782078FFF791FDF8BD1A42BFD0642356
:1026A000A371BCE70AF0BAFD2B7830600E2BC4D8BA
:1026B00001220E4B1A700AF0B1FD0A4B1860BCE7FC
:1026C0007F333B70D5E72878FFF71EFFE4E7C0466D
:1026D0005D0C00201D1100207B0C00201C1100202F
:1026E0001811002020110020881300005C0C00202D
:1026F0001411002010110020211200200C110020C4
:102700000811002085330020863300208433002008
:102710005608010870B580240423214DA40021002F
:1027200028002B8301220CF020FF280001224021E9
:102730000CF01BFF6C83C13CFF3C6C83102603250F
:1027400032003100300005F0BDFA220021002000E7
:10275000FFF724FD220021002000FFF72EFD05F0E9
:1027600017FAFFF78BFC0F480BF085FE00221100D3
:10277000100005F0A7FA002211001000FFF70EFD6F
:10278000002210001100FFF718FD013D05F000FACE
:10279000FFF774FC03480BF06EFE002DD0D170BD26
:1027A00000080048204E00000323F7B51D4E1E4DC3
:1027B0003370013B2B701D4B00241A000093012342
:1027C00013701B4B1B4A1C4F1C701C4B0192147046
:1027D0003C701C700AF022FD194B1860194B1C70DC
:1027E00006F01AFF0C2006F05CFF972007F050F867
:1027F000FF214C22080006F0A4FFA5231248009AEE
:1028000003703B784370337883702B78C3701378F0
:10281000019A0371137843710123837103F057F90F
:10282000F7BDC046600C00205F0C00205E0C00204D
:10283000611100206211002063110020601100204E
:102840005C110020211200200C340020042370B5FC
:10285000564C012220002383402180250CF085FE68
:102860004023AD0063832900200001220CF07DFE8F
:10287000002265831100FF2005F024FA05F088F995
:102880000022FF201100FFF789FC0022484C1100B4
:10289000FF20FFF792FCFFF7F1FB20000BF0EBFDB0
:1028A0000022FF21100005F00DFA05F071F9002259
:1028B000FF211000FFF772FC0022FF211000FFF73C
:1028C0007CFCFFF7DBFB20000BF0D5FD0021FF2295
:1028D000080005F0F7F905F05BF90021FF22080078
:1028E000FFF75CFC0021FF220800FFF766FCFFF702
:1028F000C5FB20000BF0BFFD80221100100005F089
:10290000E1F905F045F9802211001000FFF746FCBF
:10291000802211001000FFF750FCFFF7AFFB2000F2
:102920000BF0A9FD80210022080005F0CBF905F08D
:102930002FF9802100220800FFF730FC80210022BF
:102940000800FFF73AFCFFF799FB20000BF093FD1E
:1029500080220021100005F0B5F905F019F9802258
:1029600000211000FFF71AFC802200211000FFF761
:1029700024FCFFF783FB20000BF07DFD802200206C
:10298000110005F09FF905F003F9802200201100E5
:10299000FFF704FC802200201100FFF70EFCFFF778
:1029A0006DFB20000BF067FD70BDC04600080048BD
:1029B00050C30000F7B5964D28680AF073FC954C9B
:1029C00023781B1823700AF029FC934B2860187891
:1029D00003284AD8914A924B1278FDF709FCE90284
:1029E000A75C9B185A7923789A423ED29B1ADBB295
:1029F000142B00D900238B4923700B785A1CD2B2B8
:102A0000DF2A01D92133DAB20A70032100254A43B3
:102A1000854B8648D15C9B185A78017084499B7815
:102A20000A70844A1370844A844B1278985CFFF7CA
:102A3000FFFA834C7F4F7E4E7C493B783278019180
:102A4000097820789B0892088908FFF70BFB019909
:102A50003B783278097860789B08920889080135BC
:102A6000FFF700FB0234062DE4D1FFF793FDFFF7DB
:102A700001FCFFF7B1FBFFF74DFCFFF761FC714C68
:102A800020680AF00FFC1E2804D90AF0C7FB20605A
:102A9000FFF7F4FAF7BD9B18DA7B23789A42E4D269
:102AA0009B1ADBB2142B00D90023674823700378EC
:102AB0005A1ED1B2120601D57F33D9B203220025A6
:102AC000624B01701C78624B62435848D45C9B187F
:102AD0005A78047056489B780270564A13705D4BC2
:102AE000585CFFF7A5FA544A544B1278985CFFF7EC
:102AF0009FFA534C4F4F4E4E4C493B7832780191E0
:102B0000097820789B0892088908FFF7ABFA0199A9
:102B10003B783278097860789B08920889080135FB
:102B2000FFF7A0FA0234062DE4D19EE79B189A7AAB
:102B300023789A4299D29B1ADBB2142B00D9002336
:102B40002370384B1A78072A01D900221A70002303
:102B50003B4F019303213D4B354D1A783C4B4A4383
:102B6000D15C9B185A78334E9B782A70324A337066
:102B70001278324B2D4C985C2170FFF759FA33785C
:102B80002A78217838789B0892088908FFF76AFA32
:102B900033782A78217878789B0892088908FFF79B
:102BA00061FA019B023701330193062BD2D15CE716
:102BB0009A5C23789A4200D357E79B1ADBB2142B16
:102BC00000D8180020700024184B1D4D1C70184BA5
:102BD0001C70184B1C70174F154E14493B783278F7
:102BE0000191097828789B0892088908FFF73AFA3A
:102BF00001993B783278097868789B0892088908AF
:102C00000134FFF72FFA0235062CE4D12DE7C04638
:102C10005C11002060110020631100205F0C002077
:102C200022020108611100205602010885330020AC
:102C30008633002084330020600C00201C02010831
:102C40001002010804110020001100206211002070
:102C50003B0201085608010870B5444C2378022B4A
:102C600015D10122424B1A700023424A1370627838
:102C7000042A11D92200483215781A003E4ED8B2E3
:102C8000F15C854204D88A4206D00523237070BDCA
:102C90005218D2B20133F2E7230046331B78C92B16
:102CA00015D008D8812B48D0C72B0ED000236370D5
:102CB0002370A370EBE7F22B03D0F42BF6D12F4B4C
:102CC00000E02F4B01221A70F0E72E4BFAE72200AA
:102CD0002D4B49321978127891421ED100212B4A8E
:102CE000117022004A321278DA70032A05D12200CC
:102CF0004B321278072A00D85A71220021004C3238
:102D000012784D311A710978642900D89971D20767
:102D100001D564229A711E4BD4E7DB78FE2BFAD0E2
:102D20001A4A1378042B05D9002313700122194B7A
:102D30001A70F0E701331370EDE72100164D2022E1
:102D400028004931FDF7FAFD2B79042B01D80E4AF2
:102D500013706B79032B01D80B4A5370AB795A1E51
:102D6000022A01D8084A93700C4BABE78733002046
:102D70002212002076110020D033002017120020EC
:102D800018120020141200207B0C00206C1100206F
:102D9000151200201E1200209F1100201612002084
:102DA000802370B50D000600124C5B006383052084
:102DB0000BF061FB3000A9B20AF004FB1E2068434F
:102DC0000300323313D000230B4A002132300DF0C0
:102DD000C8F80023094A801859410023084AFDF722
:102DE000C3FA0BF048FB80235B00238370BD0120F6
:102DF000F7E7C04600040048A08601003F420F00EC
:102E000040420F0000234118884202D15A20584006
:102E10007047027801309B18DBB2F5E770B504000B
:102E20000D00101E2ED00023774A00210DF099F8D6
:102E30000023764A80185941FA2200239200FDF7B8
:102E400093FA0BF018FB3E2200217148FDF7D8FBE6
:102E50005A23704E7371B471CA2C21D8BF2C13D869
:102E6000812C00D1BDE0B12C1ED000236A4C6B48F0
:102E70002370317A0531FFF793FF002D00D0B6E0C3
:102E8000E02070BD0120DCE72000C0380A28ECD823
:102E9000FDF7A4F91435EB39EB0AEB23EB0D6100D8
:102EA0000F34E4B2012CE0D801233372DDE70123B3
:102EB00033725B4B1B787372B372D6E70222584BA6
:102EC000DA70013A327200221B787372B372554B7A
:102ED0001A80554BFF321A70C7E70122504BB2726D
:102EE000DA701B78022173729B180022F3724D4B2B
:102EF00031721A804C4BFD3119704C4BEBE70123BA
:102F000033721733D7E701231121412273720E3335
:102F1000B3723F33F37227333373253B7373183324
:102F2000B3735B18F3737274593B28323374B27401
:102F3000B37509323633F274F3753B3A243B32757C
:102F40003376023A053B3A48317272757376FFF771
:102F500059FFB07689E7032341225620B3724B33E1
:102F6000F372F2752733283273737276253B093278
:102F7000F373F27618333B3A737472771133023A73
:102F8000F374F277593BB21CD377321DD077B21D60
:102F90002438D07732000832D37773753300442257
:102FA00029331A7033002B322B331A703300013A55
:102FB0002D331A703300073A2F331A70330005325D
:102FC00031331A70300033002C213333073A093083
:102FD0001A7031727172FFF715FF330035331870B4
:102FE00043E7022333721E33B372F3723DE764206A
:102FF0000BF041FA2378013DEDB2002B00D03FE702
:10300000002DF4D1E3203CE7A0860100E703000097
:103010008E33002087330020221200208C330020C2
:103020007B0C0020101200207511002014120020CB
:103030009033002070B5404C20680AF033F9C7285F
:1030400037D90AF0EBF820603C4C2278002A31D0C6
:10305000002310263A4D3B4823700BF00CFA3A48F7
:103060006E830BF008FA38482E830BF004FA374DC4
:10307000374B29781A78042927D1002A07D0002253
:103080001A70344B186809F0E5FE00F07BFC002252
:10309000314B1A700122C9201100FFF7BFFE2B78B7
:1030A000042B06D02D4A13780133DBB2042B3DD814
:1030B000137070BD2A4B19780029D8D01A700A22D3
:1030C000C0201100FFF7AAFED1E7022A06D0022293
:1030D0001A7000F057FC234809F0BCFEEA78224938
:1030E000032A0DD00B78092B07D903211A4B19702D
:1030F00000211E4B19801E4BCBE701330B70C9E733
:1031000000230B7014491B480B7019490380087881
:103110000328BFD00A70154A13802B78002BB9D131
:103120001E220A21CA20FFF779FEB3E7002313709D
:1031300001332370BDE7C046681100201312002040
:103140000004004810270000881300007B0C0020BA
:1031500000120020FC1100200C120020761100202B
:103160001E120020640C0020751100200E12002099
:10317000610C002010120020134B70B51B78140056
:10318000002B1FD0114B1A78042A1BD0DB78032B9D
:1031900018D10F4D0F4E573322006B71A871593B58
:1031A0003000EB712C72FDF7C9FB21003000FFF7F6
:1031B00029FE2D196872611D0748FFF7F1FD1420E3
:1031C0000BF059F970BDC0461D1200207B0C002089
:1031D00087330020903300208C330020154B10B52E
:1031E0001B78042B22D00122134C144B20681A7038
:1031F0000AF058F8322819D90AF010F8FA22104BC0
:1032000020601B880F4CD200934210D80822E12086
:103210000D49FFF7B1FF14200BF02DF92378002B97
:1032200004D01022E2200949FFF7A6FF10BD0023B9
:103230002370FBE77B0C002070110020780F00202A
:103240000A1200207411002077110020BF11002005
:10325000002210B5034B411C1A80E3200232FFF715
:103260008BFF10BD0A120020002210B5034B411C39
:103270001A80E0200532FFF77FFF10BD0A12002000
:10328000002210B5034B411C1A80E4200232FFF7E4
:1032900073FF10BD0A120020002210B50400074B76
:1032A00001001A804270E1200832FFF765FF082212
:1032B00021000348FDF742FB10BDC0460A12002062
:1032C00077110020F0B50024354B364A1C80364B70
:1032D0001278196885B04B789A4202D0334A01348B
:1032E00013700026324B334801938B1C009333003C
:1032F0002E4F019A1578009A1278554002951D00BC
:1033000001220835EDB20395029D2A4211D00099A1
:103310000D78154237D00225795D002902D17B5501
:10332000012406E00135082DF6D145781543012624
:103330004570013303995200DBB2D2B28B42E3D124
:10334000019A013001320192009A01320092F02B71
:10335000CFD1002E07D00122174BE2201A70154959
:103360000F32FFF709FF002C04D00822E1200F499B
:10337000FFF702FF0C4B1F2219680A480131FDF7C5
:10338000DDFA05B0F0BD0225795D994202D1002138
:103390007955C5E70135082DF6D145789543C6E73F
:1033A0000A1200207F110020E80D00207711002074
:1033B00080110020BF1100207411002070B501257C
:1033C0000AF00CF8124B041E0AD11A78002A06D013
:1033D000187002230F4D2B70FFF73EFC6C7070BD10
:1033E0000C4C1D7066783F2E09D909F0E1FF09F0F9
:1033F000F5FF0028E4D114300BF03DF8E0E7731C32
:10340000637009F0D5FFA41945342070EFE7C0467A
:103410006411002087330020E12010B5C00209F0BC
:10342000A7FF01220B4B196891431960A02118686E
:1034300049010143196019680A431A60064B07499C
:103440009A680A409A60A022D968D2010A43DA60D9
:1034500010BDC0460038014000040048FF0FFFFFC8
:1034600070B50023FA260B24294D76002B70013C01
:10347000E4B2002C0ED014220021F220FFF7CEFC83
:1034800030000AF0F8FFFFF799FFFFF797FF2B785E
:10349000002BECD00023FA260B241E4D76002B7057
:1034A000013CE4B2002C0ED0142200218120FFF751
:1034B000B5FC30000AF0DFFFFFF780FFFFF77EFF6B
:1034C0002B78002BECD00023FA260B24124D76002B
:1034D0002B70013CE4B2002C0ED014220021C92034
:1034E000FFF79CFC30000AF0C6FFFFF767FFFFF70D
:1034F00065FF2B78002BECD014220A21C320FFF7A4
:103500008DFC14220A21CA20FFF788FC70BDC0463A
:10351000181200201612002015120020F8B54F4C8A
:10352000206809F0BFFE31285FD909F077FE2060DE
:103530004B4C4C4E2378002B58D0002323704A4B21
:103540009B79002B1CD00522484B1100DB78C12051
:10355000032B00D0F120464DFFF760FC012204212F
:1035600028000CF002F804230022402128006B837D
:103570000BF0FBFF80210022280089000BF0F5FFF3
:10358000012333703B4B1B88092B2BD804230027C6
:10359000374D01224021280037702B830BF0E5FFC7
:1035A00040238021012228006B8389000BF0DDFF7E
:1035B00080239B006B8301223900F220FFF72EFC51
:1035C0002A4B1B78042B0DD12B4D10372B6CC820A8
:1035D0003B432B640AF04FFF2B6C2848BB432B6402
:1035E0000AF082F92378002B03D0F8BD3378002B42
:1035F000C8D13378002BF8D11C4A117804290FD197
:103600001E4A11781E4A052908D113780133DBB20E
:103610001370132BE9D901232370E6E71370E4E755
:10362000D278032A07D1174A1360124B1A88164B17
:103630009A42F0D8D9E7154915480D88854201D935
:103640000B80E8E7042AD0D10E490A680132642AC7
:1036500001D80A60C9E70B60DDE7C046E811002029
:1036600017120020121200200C3400207B0C0020C6
:10367000000800480A120020005C0040903700203B
:10368000E4110020E01100209F8C000010120020A7
:10369000DF2E0000802130B5072301251C4A490098
:1036A0002C009C401183204219D00324C046C04600
:1036B000C046C046C046C046013C002CF6D15183EE
:1036C000C046C046C046C046C046C046C046C046CA
:1036D000C046C046C046C046013BE1D230BDC046F0
:1036E000C046C046C046C046C046C046C046C046AA
:1036F000C046C046C04603245183C046C046C046AB
:10370000C046C046C046013C002CF6D1E4E7C046A6
:1037100000080048F7B50500019172B600240327A0
:10372000019B9C420CD3E0239B00C046C046C04690
:10373000C046C046C046013B002BF6D162B6F7BD7D
:103740003B006343EE18E85CFFF7A4FF7078FFF7D7
:10375000A1FF0134B078FFF79DFFE4B2E0E700007D
:10376000014B58797047C0467B0C0020037810B598
:10377000042B02D1FFF76CFD10BD032BFCD1FFF72A
:103780007FFDF9E710B5FFF76FFD10BD012210B501
:10379000024B1A70FFF796FD10BDC046780F00204F
:1037A000012210B5024B1A70FFF776FD10BDC0461E
:1037B000780F002070B580251F4CAD00200001223D
:1037C00040210BF0D2FE2900200001220BF0CDFE9B
:1037D00080264023760063836583184D31002000E6
:1037E00001220BF0C2FE28003100668301220BF09B
:1037F000BCFE202228002E8311000BF0B6FEF03E06
:103800002800012210210BF0B0FE6E830C480AF054
:1038100032FE2E832000202201210BF0A6FE200084
:10382000202202210BF0A1FE0122042120000BF036
:103830009CFE0423238370BD000800480004004858
:103840008813000070B5434C206809F02BFD6328F5
:103850006ED909F0E3FC4049404A0B782060002B08
:1038600067D0138801339BB213801D2B1CD9002312
:10387000FA2506240B703A4BED001A78394B1A7072
:103880005A709A70013CE4B2002C0DD00122002144
:10389000C720FFF7C3FA28000AF0EDFDFFF78EFD01
:1038A000314B1B78002BEDD03049314A0B78002B7F
:1038B0004BD0138801339BB213801D2B29D90023D1
:1038C000284C0B702378042B35D0002B03D0012318
:1038D0002370A37063700A22C0201100FFF79EFAC4
:1038E00024480AF0C8FD0A22C5201100FFF796FA05
:1038F00002F050F9FEF70EFFFEF756FFE3791E4C7B
:10390000A22B1AD1012001F0C0FA7F2223781340A4
:1039100023701A491A4A0B78002B18D013880133E8
:103920009BB213801D2B03D900230B70FEF78EFF73
:1039300070BD1380B8E70123CBE7042001F0A5FA9E
:10394000802322785B421343E2E71380E1E7138090
:10395000EEE7C046F81100201C12002004120020DF
:10396000081200207B0C0020141200201B120020E3
:103970000612002050C30000163400201A12002046
:1039800002120020F0B52D4C85B0257801F0ACFE78
:1039900001F08EFE00F050FF802322785B4213433B
:1039A0002370274B20221E6800213000FCF728FEE0
:1039B000300009F073FAFA207F2680000AF05BFDE0
:1039C00023780822334023701E4B00211F68ED0925
:1039D0003800FCF715FE380009F056FAFA2080008E
:1039E0000AF049FD2378ED0133402B432370164B39
:1039F0001B78042B16D0102200216846FCF700FE2D
:103A000010226946E220FFF7B7FBFA2080000AF097
:103A100032FDE12008226946FFF7AEFBFA20800064
:103A20000AF029FD202200210848FCF7E9FD0822C0
:103A300000210748FCF7E4FD05B0F0BD1634002076
:103A4000E80D0020EC0D00207B0C00207F110020F1
:103A50007711002070B50400042812D80025FFF764
:103A600091FF01220A4B1C70DD700A4B1A700A4B41
:103A7000042C07D11D70094B186809F0EBF9084BAD
:103A80001D8070BD022207481A7009F0E3F9F8E7BB
:103A90007B0C00201E12002000120020FC110020D0
:103AA0000E120020640C0020F8B53C4E3C4C3378DC
:103AB000002B26D009F0B2FB3A4D206020220121D4
:103AC00028000BF052FD2022022128000BF04DFDB2
:103AD00001232C692A691C40DB181A4217D1324F86
:103AE000324D3B78A34214D0FFF74CFF0023304AFD
:103AF0003C7013802F4A138019222A702E4A1370AB
:103B000004E0206809F0CEFB1328D3D8F8BD1C438D
:103B1000E5E72B78002B02D0013B2B70F6E7274D11
:103B20002B78E20723D50420042B23D1EB79A407BB
:103B300023D5A22B0DD00120214B187001F0A5F93F
:103B4000A2237F211F4AEB7113780B401370FFF7FC
:103B500019FF194A1378002BD8D1012133702B7823
:103B60001170042BD2D0184809F074F9CEE76878A8
:103B70009842DBD0FFF76EFFD8E7A12BE9D00122F6
:103B80000F4B04201A7001F080F9A1230D4AEB714C
:103B90001178223BFF3B0B43D8E7C0467A0C00204C
:103BA000F411002000080048790C0020F0110020DA
:103BB0000A120020101200201D1200207B0C002091
:103BC0002012002016340020640C0020F7B50024D9
:103BD000202201212A480BF0C8FC2022022128487B
:103BE0000BF0C3FC2600230001270221244A642095
:103BF000156912693D4011400A000091511E8A4129
:103C0000D2B20192B54201D19A4205D00AF033FCFA
:103C10002E003C00019BE8E70134E4B20AF02BFCE3
:103C20000A2CF7D1174C2378002E15D00420042B32
:103C300015D1009AE379002A14D0A22B0BD00120D1
:103C400001F023F9A2237F210F4AE37113780B407F
:103C50001370FFF797FEF7BD60789842E9D0FFF741
:103C6000F9FEE6E7A12BF6D0042001F00EF9A1231E
:103C7000054AE3711178223BFF3B0B43E8E7C0465E
:103C8000000800487B0C002016340020164B10B5AD
:103C90001A78164C002A08D000221A7009F0BEFAD1
:103CA000206009F0DDF8124B1860206809F0FAFA7C
:103CB000092817D909F0B2FA96210E4A2060138814
:103CC00049008B4201D2013313800B4A0B49138800
:103CD0008B4201D001331380094A13888B4201D0F3
:103CE0000133138010BDC046780C0020EC11002079
:103CF000FC1100200E1200200A120020FFFF00001D
:103D000010120020F7B51A4C200001F0D0FE194A1D
:103D100023780092184A194F194E1A4D0192A52B7B
:103D200018D0FF214C22080005F00BFDA5232370BD
:103D30003B78200063703378A3702B78E370009B8E
:103D40001B782371019B1B7863710123A37101F020
:103D5000BEFEF7BD6378009A3B70A3783370E378BA
:103D60002B70237913706379019A1370F1E7C046C1
:103D70000C3400205E0C0020621100206311002032
:103D8000600C00205F0C00200022954B10B51A80BB
:103D9000944BC0180123172826D84B79FCF732FA28
:103DA00018002600320051005C00680074007A00A0
:103DB0008C0091009D00B400D600DD00E200E90017
:103DC000F000F700FC0002011001960019011E012D
:103DD000002B08D0844B1B78042B04D114220A2119
:103DE000B120FFF71BF80023180010BD002B02D0F4
:103DF000FFF7C8FDF7E704227B4B1A70063211006B
:103E0000C020EEE7002B0AD0774B1B78042BEAD0BA
:103E10000022764B1A70764B01321A70E8E7744A2A
:103E200011780029DFD01370724B1B881D2BDAD854
:103E30006E4B0A211A786C4B1A705A709A701422C1
:103E4000DEE7002BEBD0684B1B78042BCBD0012294
:103E5000664B1A70664BE0E7002BE0D0624B1B7894
:103E6000042BC0D00222614B1A70614B013AD4E797
:103E7000002BD4D05C4B1B78042BB4D003225B4BBB
:103E80001A705B4B023AC8E7002B18D05A4809F069
:103E900037F8A8E7002BA6D0E32000F0EFFB2C209A
:103EA00000F0ECFB55480AF0E6FAE32000F02AFCAB
:103EB0002C2000F027FC96E7CF20002BE7D1002034
:103EC000E5E7002BFBD0A8208000E0E79B20002B3B
:103ED00000D1180008F0FAFF85E7002B00D182E737
:103EE000E32000F0CBFBE12000F0C8FB202000F035
:103EF000C5FB42480AF0BFFA202000F003FCE12095
:103F000000F000FCE320D4E7002B00D16BE7364B38
:103F1000E320DB79A12B0CD100F0B0FBE12000F015
:103F2000ADFB162000F0AAFB34480AF0A4FA1620D4
:103F3000E3E700F0A3FBE12000F0A0FB212000F06C
:103F40009DFB2E480AF097FA2120D6E70120002B8E
:103F500000D148E7FEF79AF845E7002B00D142E789
:103F60000020F7E7002B00D13DE70120FEF7FCF829
:103F700039E7002B00D136E70120FEF7BBF832E726
:103F80000120002B00D12EE7FEF798F82BE7002B3D
:103F900000D128E70020F7E7194A002B17D00123AA
:103FA000137025E7002B00D11DE7164883795A428C
:103FB000534101228371144B1A7001F088FD12E7FE
:103FC000002B00D10FE70123104A11784B401370EA
:103FD00009E70F4A002BFAD00123F8E70D4AF9E769
:103FE0000A1200200082FFFF7B0C00200812002034
:103FF0001C120020041200209F0200008813000001
:104000001B1200200C3400201F120020211200205F
:10401000191200201A120020074B10B51B78002B34
:1040200001D0FEF769FA002354201A00190003F0AA
:10403000B7FD012010BDC0461912002010B5FFF7D2
:10404000B9FBFFF7E9F90B480AF015FAFFF708FA90
:10405000FFF798FCFFF7BAFDFFF754FE05F0C8FA2A
:1040600000221000110005F067FB002005F014FB92
:1040700010BDC04650C3000010B5FFF707FEFFF7A4
:104080009DF9FFF7ABF8FEF7D5FFFFF7DBFBFFF776
:104090000BFDFEF78FFCFFF741FA10BD10B50400D1
:1040A00000F01EFA022819D0032821D0012809D0D7
:1040B00000221000110005F03FFB002005F0ECFA93
:1040C000200010BDFF220020110005F035FB042068
:1040D00005F0E2FA322005F0D1FBF1E7FF2255208E
:1040E000110005F029FB1D2005F0D6FA2820F2E783
:1040F000FF22AA201100F4E770B508F0C1FE800786
:1041000050D520252800FF2372226321013503F0BA
:1041100047FD232DF6D12F242000FF237222632197
:10412000013403F03DFD322CF6D13D263000FF2353
:1041300072226321013603F033FD402EF6D12800B0
:10414000FE23FF22AA21013503F02AFD262DF6D1F8
:104150002000FF2300220621013403F021FD352C2D
:10416000F6D13000FE23FF22AA21013603F018FD0C
:10417000432EF6D12800FF2300220621013503F04B
:104180000FFD2A2DF6D12000FE23FF22AA210134A3
:1041900003F006FD382CF6D1FF2300220621432030
:1041A00003F0FEFC002070BD10B5130004000120D8
:1041B000032C0CD805290AD8102A08D811224A4302
:1041C0006621614352180248D2185200105A10BD9D
:1041D00056090108F822411EFF39030030B50020BE
:1041E0005201914217D28022802480219200D8056A
:1041F0001A40C00FE4000901DD040DD50001002ABA
:1042000001D020221043234201D0402210430B4210
:1042100001D08023184330BD002A01D00222104370
:10422000234201D0042210430B42F4D00823F1E7CB
:1042300010B50C00FFF7CEFFA04710BD0300E03B18
:1042400010B50400072B02D90549002800D1054903
:104250002000FFF7EDFFE0B200F010FA10BDC046FD
:10426000ED470008CD47000810B50400C0B200F0CB
:1042700049FA2300E03B072B02D90449002C00D166
:1042800003492000FFF7D4FF10BDC046FD470008DA
:10429000DD4700080120704710B5FFF7FBFF10BD98
:1042A0000120704710B5FFF76FFD10BD704710B5C6
:1042B000FFF7FCFF10BD000013B5114B00901B78F9
:1042C0000191002B16D16B465B79002B0DD0002A93
:1042D0000BD000F0ADFE04000100009800F080FE5D
:1042E0002000009901F03EFE16BD009800F08CFE03
:1042F0000400F5E7009800F09BFE0099F2E7C04645
:104300002812002010B5030000890A00002806D1F9
:1043100058881988000408439988FFF7CDFF10BD1D
:1043200070B501210400FFF7EDFF21000500FFF744
:10433000B3FF0023984204D02100280006F006FEB7
:1043400003000120184070BD10B504000021FFF7E4
:10435000D9FF2100FFF7ABFF10BD0120704710B55A
:10436000FFF7FBFF10BD000010B5040000F064FA79
:104370002000FFF7F4FF02480AF07DF810BDC046A8
:10438000A861000010B50120FFF7EEFF08F0AAFFBA
:1043900010BD10B50020FFF7E7FF08F0B3FF10BD18
:1043A00037B56B460C009D1D288008F00FFB0028D8
:1043B00004D001212000FFF7A5FF2880210028005C
:1043C00007F0CCF9002861D02100288808F038FCDB
:1043D00000285BD02100288805F054FE002855D025
:1043E00021002888FFF75EFF00284FD02100288891
:1043F00007F06EFB002849D02100288808F008FB50
:10440000002843D02100288806F004FB00283DD076
:104410002100288808F04AFA002837D0210028888F
:1044200007F0B6FC002831D02100288807F046F9B3
:1044300000282BD02100288805F0AEFA002825D0CE
:104440002100288808F05CFB00281FD06379002B2E
:104450000DD02B88144A93421FD00CD8134A934294
:1044600018D0134A934213D0033A93420CD0200041
:10447000FFF716FF0BE00F4A934211D00E4A93420A
:10448000F5D101F0B3FAF2E7FFF77CFF00203EBD63
:1044900001F0C4FAFFF77DFFF8E701F0B3FAE6E7B1
:1044A00001F0B5FAE3E7C0465A7C0000017C000049
:1044B000037C00005B7C00005C7C000010B5040005
:1044C0000121FFF71FFF2100FFF76AFF10BD10B5A4
:1044D00000F059F8002005F051F808F06AFE10BD10
:1044E0000300000901D0030004209A0802D0130041
:1044F0000230C0B25B0801D00130C0B27047332136
:1045000002090001C0B20243930092100A408B439B
:1045100013435522DBB258005B10904313401843FD
:10452000C0B2704770B50500C0B2FFF7E8FF0400E5
:10453000280AFFF7E4FF2402204380B270BD70B563
:10454000050080B2FFF7EEFF0400280CFFF7EAFF3A
:104550002404204370BD704701207047704770B538
:10456000051CFFF7F9FF041E02D0281CFFF7F6FF19
:10457000200070BD704710B50400FFF7ECFF201C51
:10458000FFF7EDFF10BD10B508F070FCFFF7F3FF6B
:1045900010BD000010B508F069FC074B04001A7844
:1045A000824207D0187008F039FE044B18602000D2
:1045B000FFF7E1FF10BDC0462312002024120020A7
:1045C00010B586B00B0A0191C9B20090DBB2002988
:1045D00003D01D490A6801320A60002B01D001F0A6
:1045E00083F804241220220000216844FCF708F814
:1045F000009B6A4603936B469B881382134B5B7840
:10460000234210D0124B5B88002B0CD001F018F81D
:10461000002802D0022001F0B9F900F0EDFF0028D7
:1046200001D001F0F5F86B461B7C002B06D10398F6
:104630000499059A00F074FF06B010BD03A8FFF7B7
:104640006FFE0028F3D1F7E72C120020163400206B
:1046500088360020037910B5012B02D1008800F0C4
:1046600009FD10BD10B5002904D007F0EFFC07F0DC
:10467000C1FD10BD07F04AFDF9E7000010B5041EAA
:1046800011D0031FDBB2A02B0ED808F077FC002856
:1046900004D0200008F0FAFC01F032F9200008F004
:1046A000D9FC01F02DF910BD03002033DBB2072B3C
:1046B00007D80723034001209840C0B200F0E8FF6C
:1046C000EFE703005B33DBB2022B04D8243CA0B23B
:1046D00008F0FCFBE7E703005833DBB21A2B05D8E0
:1046E000074A5B00985A08F00BFCDCE70300333301
:1046F000DBB2122BD7D807F0A9FC07F07BFDD2E77D
:10470000860C010810B5002807D0031FDBB2A02BD0
:1047100004D808F0BBFC01F0F3F810BD030020330F
:10472000DBB2072B07D80723034001209840C0B213
:1047300000F0B6FFEFE703005B33DBB2022B03D8D8
:10474000002008F0C3FBE8E703005833DBB21A2B64
:1047500003D8002008F0D4FBDFE703003333DBB2DB
:10476000122BDAD807F0D2FC07F044FDD5E70000A1
:1047700070B504000D00FFF781FF0120002D0ED061
:1047800000230A4A280000210BF0EBFB0023084A13
:1047900080185941FA2200239200FBF7E5FD09F049
:1047A0006AFE2000FFF7AEFF70BDC046A086010084
:1047B000E703000010B5044B392803D1198CFFF72B
:1047C000D7FF10BDD98BFAE78836002010B5002836
:1047D00003D000F05DFF01F093F810BD10B5002884
:1047E00003D000F05DFF01F08BF810BD10B500287C
:1047F00003D000F069FF01F083F810BD10B5002868
:1048000003D000F069FF01F07BF810BD10B5002067
:1048100008F05CFB002008F073FB00F065FF01F07E
:104820006FF807F05BFD07F0E5FC10BD10B508F070
:1048300049FCFFF7EBFF10BD10B500F039FFFFF7A3
:10484000F5FF10BDC2B20004030F062B18D00F21D4
:10485000062B0ED80E3300200B40012B08D8012068
:10486000F02A05D007D80020E72393424041C0B288
:1048700070470633EFE7F43A100043425841F6E739
:104880000120E72AF4D9F13A53425A41D0B2EFE776
:104890000279030010B5101E06D01889002804D034
:1048A00001F078FAFFF7CEFF10BD188800F0E2FBA8
:1048B000F8E70000F0B5837985B01B090C1C457939
:1048C0000290019300F0D4FE27040390002828D022
:1048D0000395002D25D03B0E0F221900914340294E
:1048E00010D0E1B20A0000202032D2B20390072A91
:1048F00017D91F229343202B04D1012911D9019BE1
:1049000083420ED00022A74B03925B785B0708D549
:10491000022001F03BF800F0ABFE01234340DBB284
:104920000393380F0B2863D8FBF76CFC0C000C00CA
:104930003D003D00F3000801620062000D017801B6
:104940008B018B012605360F3F0E0F2F00D9360144
:10495000E7B2002D12D0002E0BD03B002033DBB28B
:104960003000072B01D9002F05D100F091FE00F097
:10497000C7FF38003AE000F0A7FEF8E73800FFF77D
:10498000C1FE002E34D03B002033DBB23000072BB9
:1049900001D9002F02D100F083FE01E000F09CFE5F
:1049A00000F0AEFF24E00F2326053F0E360F9F4395
:1049B000202F00D03601E7B2002F09D0012F00D1FF
:1049C00078E0019B002D00D183E0002B3ED0D0E7A2
:1049D000744B5B785B0734D4002D2BD0002E04D0B1
:1049E000300000F055FE00F08BFF0020FFF746FE80
:1049F000201CFFF727FF002800D0C9E100226A4BE6
:104A00001A60039B002B13D000F012FE012302005A
:104A10001A4018420CD1029B5A7100F003FE00F0BC
:104A20006FFA029800F0FAF900F0FCFD00F074FA59
:104A300005B0F0BD2800FFF765FE002ED8D030008D
:104A4000A9E7019B002D1DD0002B03D13000FFF7FB
:104A5000BDFECDE7019B012B03D1300000F092FE9B
:104A6000C6E7524B1B7F012BC2D9019A9342BFD19B
:104A70003000FFF7ABFE300000F09AFE300000F08F
:104A80005DFEB5E7002B09D13000FFF7A7FE30002F
:104A900000F08EFE300000F061FEA9E7434B1B7F63
:104AA000012BA5D9019B012BA2D100F0EBFD064201
:104AB0009ED0E9E73E4B019ADB7F002D02D09A425F
:104AC00096D8C3E79A4200D392E73000FFF786FEFC
:104AD0008EE7002BF9D0354B392F18D1188C0028D0
:104AE0000ED000232900334A0BF03BFA0023324A50
:104AF00080185941FA2200239200FBF735FC00E0B0
:104B0000012009F0B8FC3800FFF7FCFD70E7D88BF6
:104B1000E5E72005800F0AD0012800D068E70020D3
:104B2000854201D0A005800D08F0EAF960E7002D6C
:104B300001D0A005800D08F0C9F959E72900E0B2BD
:104B4000FFF790FD54E7BF01BF0F37D1002D1BD1F8
:104B5000102123065B0F9B002207DBB2120F9A4045
:104B60000800D2B22040214203D00F209840C04319
:104B7000C0B223059B0F1043022B0DD0032B0ED088
:104B8000012B06D000F090F908F070F9FFF7F3FC64
:104B90002EE700F07FF9F7E700F090F9F4E700F076
:104BA00074F9F1E7163400202C120020883600201A
:104BB0008B360020A0860100E7030000A3059B0FB1
:104BC000DAB2002D1ED0DB07DED5102123065B0FE5
:104BD0009B002207DBB2120F9A400800D2B220409D
:104BE000214203D00F209840C043C0B223059B0F41
:104BF0001043022B0CD0032B0DD0012B05D000F05D
:104C0000ADF9C1E7012ABFD9DFE700F09DF9BBE7A5
:104C100000F0AEF9B8E700F05FF9B5E72605E7B2B6
:104C2000360F002D06D0300000F06AF93800FFF78B
:104C3000CDFDA9E73800FFF7D1FD300000F06CF999
:104C4000A2E7E6B23000F038042872D8FBF7D0FAB9
:104C5000032712192300604B019ADB7F002D06D039
:104C60009A4291D2E004C00E00F062F98CE79A42B9
:104C70008AD8F7E7E004C00E002DDFD100F040F93C
:104C800082E7002D04D0E004C00E00F032F97BE78B
:104C900000F02AF978E7514B5B785B0704D4E00415
:104CA000C00E002DCAD0E9E74D4E337F012B29D924
:104CB000002D1AD000F0BCFC042808D100F058FEEA
:104CC000E004C00E00F028F9002303935CE7337F73
:104CD000019A9342F8D9E604F60E300000F010F97C
:104CE0000321300000F026FEEEE7019A934205D83A
:104CF00000F03EFEE0040421C00EF3E7012000F0C6
:104D000045FEE1E7002D09D0E604F60E300000F084
:104D1000F7F80321300000F00DFE35E7012000F028
:104D200035FE019B012B00D82EE7022000F02EFE5D
:104D30002AE7019B002D08D0002B03D03000FFF79D
:104D40009DFC21E7E004C00E98E7002B1DD0244B0A
:104D5000392E18D1188C00280ED000232900214AA2
:104D60000BF0FFF80023204A80185941FA22002353
:104D70009200FBF7F9FA00E0012009F07CFB30001B
:104D8000FFF7C0FC00E7D88BE5E7E004C00E55E76D
:104D9000019B002D03D0002B00D02FE631E6002B25
:104DA00000D02BE6029A029B50881B880004918851
:104DB0001843019AFFF780FA029905F023FC0028B6
:104DC00000D11BE6094B1B68022B00D016E6E0B2AF
:104DD000FFF7F0FC12E6C0468B36002016340020A8
:104DE00088360020A0860100E70300002C12002076
:104DF00070B50400008900280BD000F0CBFF051C23
:104E000000F0C0F800F040F8291C2000FFF752FD28
:104E100070BD6079218800F037F9F0E7037910B5AB
:104E20000400002B11D0FFF749FB00280ED100F041
:104E30001FFC002809D06379002B06D0074B5B7854
:104E40005B0702D5022000F0A1FD10BD2000FFF796
:104E5000CFFF2000FFF778FAF7E7C04616340020AE
:104E600082B002B0704784B004B07047704710B58C
:104E7000FFF7FCFF10BD000010B5FFF7F8FF014B76
:104E8000187010BD58120020704710B5FFF7F4FFDE
:104E900010BD000010B5034B1B781843FFF7ECFF63
:104EA00010BDC0465812002010B5034B1B781840A7
:104EB000FFF7E2FF10BDC0465812002010B5034BAB
:104EC0001B785840FFF7D8FF10BDC046581200208D
:104ED00010B5FFF7E3F810BD10B5FFF7F9FF014B70
:104EE000187010BD5712002010B50020FFF7F4FF16
:104EF00010BD0123834010B5D8B2FFF7EDFF10BD00
:104F00000123834010B5034A10781843C0B2FFF75D
:104F1000E3FF10BD571200200123834010B5034A60
:104F200010789843FFF7D8FF10BDC04657120020F5
:104F30000123834010B5034A10785840C0B2FFF7F0
:104F4000CBFF10BD5712002010B5034B1B78184340
:104F5000FFF7C2FF10BDC0465712002010B5034B2B
:104F60001B781840FFF7B8FF10BDC046571200204D
:104F700010B5034B1B785840FFF7AEFF10BDC0467D
:104F8000571200207047032370B50126CC086343F5
:104F9000D2180723350019408D400021EDB20300DF
:104FA000CB40545C33405B4263402B405C405454E4
:104FB00001310329F3D170BD30B50724032300224A
:104FC0000440C008434301251000C9188B5CE3402E
:104FD0002B40934001321843C0B2032AF6D130BDB2
:104FE00013B5030401AA10801B0E0800052B08D876
:104FF0001478102C05D811215943024A0919FFF7DA
:10500000C2FF13BD3012002007B5030401AA1080AF
:105010001B0E0020052B08D81278102A05D8113055
:10502000584302498018FFF7C7FF0EBD3012002019
:10503000F7B5042401270D4A0D4B12781B7801AEF9
:105040001A4330800092009B23413B4204D1013C33
:10505000F9D200252800FEBDE5B22800316800F035
:10506000A1FF80B20128F2D0F4E7C0465712002019
:105070005812002007B501AB18800198FFF7D8FF40
:10508000019900F08FFF0EBD13B501AB19800E4BD7
:105090001B78002B03D00198FFF7ECFF16BD00280A
:1050A0000CD00198FFF7C4FF040001000198FFF73E
:1050B00097FF2000019900F075FFEFE70198FFF7D7
:1050C000A3FF0400F5E7C0462812002030B5040015
:1050D000012005008D4029000500954098402A00D8
:1050E000030020000A43D1B2984322408A4201D1F2
:1050F0001C43E0B230BD000010B504001300044AA8
:1051000010780A002100FFF7E1FFFFF7E5FE10BD70
:105110005712002070B50A2507260C4B1C780C4B43
:105120001B78A34200D170BD2A006243094B0134B1
:10513000D15A9B1858889A8800040843D98834406B
:10514000090411431A89FFF78EFEE8E7591200207F
:105150005A1200205C120020064B10B558881A889D
:10516000D988000410439A88090411431A89FFF76B
:105170007AFE10BDAC120020F7B5072701900E484B
:105180000E4B00781B7800900D48009CA34201D183
:105190000020FEBD0A255D43441966788E4206D183
:1051A0002D5C019EB54202D16479944202D1013353
:1051B0003B40EAE70120ECE75A1200205912002098
:1051C0005C120020F8B51D4CA3790F2B31D8637900
:1051D000002B2ED01A4B1E781A4B1B78B34228D0C6
:1051E0000A257543184BED182B79002B22D02A88FD
:1051F00023889A421ED1697900291BD16F88638860
:105200002000FF1AFFF77EF82100BFB204F022FF52
:1052100087420FD20F211022A37920000B401343A5
:10522000A371AB790B401A43AA71FFF7F7FDFFF7A3
:1052300071FFF8BD072301361E40CDE7AC120020F8
:10524000591200205A1200205C120020F0B5040010
:105250008DB00100062207A8FBF770FB2378AF4D45
:1052600003936378667904936388009323790293A8
:105270002B79002B19D1029B002B00D102E1002ECB
:1052800000D142E12000FFF703FB002800D13CE100
:105290000A2221002800FBF751FB2800FFF7DAF96A
:1052A000FFF790FFFFF758FFECE000212800FFF721
:1052B00029F86B7907000193019A6B88002A00D1C5
:1052C000E2E0009A0021D31A9BB228000593FFF771
:1052D00019F8290004F0BEFE059B834200D3ADE01F
:1052E000029B002B00D1CDE0AB79298822880F2BBF
:1052F00000D970E0914215D129892289914211D1BA
:10530000002E2AD10F221A4010231343AB71FFF74E
:1053100023FF2800FFF782FDAB79A3710025280049
:105320000DB0F0BD002E18D1320004990398FFF79C
:1053300023FF00281CD03800784905F053F90028D5
:1053400016D0764C2000FFF769FD0A2200212000CC
:10535000FBF756F9FFF700FFE0E701236F4938003C
:105360008A7913438B7105F045F90028D6D0E8E718
:10537000002204990398FFF7FFFE051ECED107987F
:10538000FFF778FEC3B200040F21020F032A08D8EA
:10539000012A0FD9000E014211D0A2790F2A0ED88E
:1053A000BDE706320A40012A0ED92000FFF736FD7C
:1053B000019DB4E7000E014201D0002BAFD0203395
:1053C000DBB2072BABD9F0E7EF2BA8D90F33DBB259
:1053D000022BA4D9E9E791420FD129892289914270
:1053E0000BD1002E09D1A3712000FFF717FD0A226F
:1053F00021002800FBF7A2FA54E72000FFF748FA43
:10540000002800D181E0002E00D17EE0434B9A7944
:105410001F2A0DD9198809A801800099418019799E
:1054200082710171002141711B890381FFF7F6FC34
:105430000A2221003948FBF781FA31E7AB790F2BBB
:105440000AD807980899FFF70BFD2800FFF7E6FC3C
:105450000A22002128007BE7029A002A12D029881C
:1054600022889142C9D1298922899142C5D1002E31
:10547000C3D12000A371FFF7D1FC0A22310028001C
:10548000FBF7BEF801254AE7009A01992800D71AD0
:10549000FEF738FF2900BFB204F0DCFD874238D2A6
:1054A000029B002BEED0002E2FD02A8823889A4210
:1054B00022D12A8923899A421ED16B88009AD31A55
:1054C0009BB2C72B12D8AB79DA070FD40F2B0DD9AB
:1054D0000F211A00A3718B43F02B00D184E7D3B2C4
:1054E0001A09013212010B4013437CE70A22210002
:1054F0002800FBF723FAC5E72000FFF7C9F90028C9
:1055000096D10123AA791343AB712000FFF786FCE3
:10551000B8E707980899FFF7A3FC99E7AC120020B9
:10552000F0B589B001AE019030007160B260FFF754
:105530008DFE2A4D071E2A4C0ED03379002B04D045
:1055400001987168B268FFF78EFC0A2720782B78E3
:10555000834227D109B0F0BD320005AB9C4603CA97
:1055600003C312881A8030792B7822780028ECD077
:1055700007205E1C064096420AD00A22534319486F
:105580006146C018FBF7DAF92E70FFF7C3FDDCE7C0
:10559000FFF752F90A22390013482F702770FBF7E2
:1055A0002FF8D2E778430F4E8019FFF74FFE0028FF
:1055B000D0D023787B439A5BF3185888D9880004AD
:1055C00010439A88090411431A89FFF74CFC0722FB
:1055D0002378013313402370B8E7C0465A120020E5
:1055E000591200205C120020AC120020014B1878E8
:1055F0007047C046E412002070B50024074D6B8848
:10560000A34208D007F042FE054B1B88C01A6B88E6
:1056100080B298426441200070BDC04688360020A8
:10562000E2120020014B1878C0087047E0120020F9
:10563000024B1878072318407047C046E01200203C
:1056400010B507F023FE074B074A1B885288C31A80
:105650009BB200209A4204D8044B01301B789B086F
:10566000984310BDDE12002088360020E012002092
:10567000034B187807231840431E9841C0B2704767
:10568000E0120020014B18787047C046111300202B
:10569000024B1A78104318707047C046111300204F
:1056A000024A1378834313707047C04611130020D9
:1056B0000022014B1A70704711130020014B18781B
:1056C0007047C04610130020024B1A781043187020
:1056D0007047C04610130020024A137883431370AA
:1056E0007047C046101300200022014B1A7070470B
:1056F00010130020014B18707047C0460F13002094
:105700000022014B1A7070470F130020014B1870D4
:105710007047C0460E1300200022014B1A707047DC
:105720000E130020014B18787047C046E512002088
:10573000704710B5FFF7FCFF10BD00000300190013
:1057400010B5054A10780140994203D018431070F3
:10575000FFF7EFFF10BDC046E4120020030010B5B4
:10576000044A1078034203D098431070FFF7E1FF1A
:1057700010BDC046E4120020704710B5FFF7FCFFD3
:1057800010BD000070B5084D04002B780340834223
:1057900009D007F07BFD054B18802B7820002343B0
:1057A0002B70FFF7EAFF70BDE5120020E212002027
:1057B00010B5084C237818420BD083430020237087
:1057C000834201D007F062FD034B18802078FFF779
:1057D000D4FF10BDE5120020E2120020094B70B585
:1057E0005B7804005B070BD5074D2B78834207D00D
:1057F00007F04CFD054B2C7018802000FFF7BDFF13
:1058000070BDC04616340020E5120020E2120020D0
:1058100010B5054B1A78002A05D000201870034BEC
:105820001880FFF7AAFF10BDE5120020E212002049
:1058300070B5114A114B14781B78114D1C432B780D
:10584000002B11D00F4B5B88002B05D0FFF7D4FE47
:10585000002801D0FFF7DCFF2D7807F06BFB002854
:1058600001D0FFF7D5FF2C432000074B1A78074BD8
:1058700090431B78184370BD1113002010130020B3
:10588000E5120020883600200E1300200F130020A0
:1058900070B50B4C2568FFF7CBFF28702468094DC5
:1058A000082229002000FAF731FE002807D008223C
:1058B00021002800FBF742F8200007F0E5FA70BD50
:1058C000EC0D0020D612002070B50B4C2568FFF7B8
:1058D000AFFF68702468094D202229002000FAF7E4
:1058E00015FE002807D0202221002800FBF726F80B
:1058F000200007F0D3FA70BDE80D0020B61200209A
:1059000010B5074B1B78002B06D0064B1B787F2B5E
:1059100002D9FFF7D9FF10BDFFF7BAFFFBE7C0467A
:10592000780F002016340020704710B5FFF7FCFFF9
:1059300010BD00000B4B10B55B785B070ED5C300A4
:10594000094C19432170FFF7DBFA07F09FFC074B66
:1059500018802078C008FFF7E8FF10BDFFF7D0FAE5
:10596000FBE7C04616340020E0120020DE120020C3
:10597000002010B5034B1870034B1880FFF7D5FFBC
:1059800010BDC046E0120020DE12002010B5094A0A
:1059900013781900814311704A070AD1994208D03F
:1059A000054B5B785B0704D5C808FFF7B5FAFFF72E
:1059B000DFFF10BDE0120020163400200A4A10B5A7
:1059C00053785907C90F81420CD001210840033197
:1059D00080008B4303435370108800F046F8022088
:1059E000FFF7D4FF10BDC04616340020044B10B59D
:1059F000587801234007C00F5840FFF7DFFF10BD64
:105A00001634002010B50120FFF7D8FF10BD10B5E7
:105A10000020FFF7D3FF10BD7047000010B501F064
:105A20007DFA0020014901F0AFF810BDFFFF000032
:105A3000002010B501F04CF8034B020000209A4200
:105A400001D107F0A1F810BDE6FE000010B502205C
:105A500001F031F810BD10B5032001F02CF810BD95
:105A600010B5042001F034F810BD10B50100042079
:105A700001F08AF810BD10B501000F2001F090F878
:105A800010BD10B50020FFF7F6FFFFF7C5FF10BDF2
:105A900010B501000E2001F06BF810BD10B51320F9
:105AA00001F023F8083843425841C0B210BD10B588
:105AB0000400FFF7F3FF0822011E04D02521200077
:105AC00001F030FA10BD2000FAF79AFDFAE710B5A0
:105AD00004000821132001F063F80822252120008A
